{
  "_format": "hh-sol-artifact-1",
  "contractName": "Tracker",
  "sourceName": "contracts/Tracker.sol",
  "abi": [
    {
      "inputs": [
        {
          "internalType": "string",
          "name": "",
          "type": "string"
        },
        {
          "internalType": "uint256",
          "name": "",
          "type": "uint256"
        }
      ],
      "name": "Journey",
      "outputs": [
        {
          "internalType": "string",
          "name": "name",
          "type": "string"
        },
        {
          "internalType": "string",
          "name": "desc",
          "type": "string"
        },
        {
          "internalType": "string",
          "name": "lat",
          "type": "string"
        },
        {
          "internalType": "string",
          "name": "long",
          "type": "string"
        }
      ],
      "stateMutability": "view",
      "type": "function"
    },
    {
      "inputs": [
        {
          "internalType": "string",
          "name": "productID",
          "type": "string"
        },
        {
          "internalType": "string",
          "name": "name",
          "type": "string"
        },
        {
          "internalType": "string",
          "name": "desc",
          "type": "string"
        },
        {
          "internalType": "string",
          "name": "lat",
          "type": "string"
        },
        {
          "internalType": "string",
          "name": "long",
          "type": "string"
        }
      ],
      "name": "addStatus",
      "outputs": [],
      "stateMutability": "nonpayable",
      "type": "function"
    },
    {
      "inputs": [
        {
          "internalType": "string",
          "name": "productID",
          "type": "string"
        }
      ],
      "name": "track",
      "outputs": [
        {
          "components": [
            {
              "internalType": "string",
              "name": "name",
              "type": "string"
            },
            {
              "internalType": "string",
              "name": "desc",
              "type": "string"
            },
            {
              "internalType": "string",
              "name": "lat",
              "type": "string"
            },
            {
              "internalType": "string",
              "name": "long",
              "type": "string"
            }
          ],
          "internalType": "struct Tracker.Status[]",
          "name": "",
          "type": "tuple[]"
        }
      ],
      "stateMutability": "view",
      "type": "function"
    }
  ],
  "bytecode": "0x608060405234801561001057600080fd5b50610fff806100206000396000f3fe608060405234801561001057600080fd5b50600436106100415760003560e01c80633f60b4ea14610046578063412ea08314610062578063b3f8675c14610095575b600080fd5b610060600480360381019061005b9190610830565b6100c5565b005b61007c6004803603810190610077919061096d565b61018e565b60405161008c9493929190610a48565b60405180910390f35b6100af60048036038101906100aa9190610aa9565b610411565b6040516100bc9190610c76565b60405180910390f35b6000856040516100d59190610cd4565b9081526020016040518091039020604051806080016040528086815260200185815260200184815260200183815250908060018154018082558091505060019003906000526020600020906004020160009091909190915060008201518160000190816101429190610ef7565b5060208201518160010190816101589190610ef7565b50604082015181600201908161016e9190610ef7565b5060608201518160030190816101849190610ef7565b5050505050505050565b60008280516020810182018051848252602083016020850120818352809550505050505081815481106101c057600080fd5b9060005260206000209060040201600091509150508060000180546101e490610d1a565b80601f016020809104026020016040519081016040528092919081815260200182805461021090610d1a565b801561025d5780601f106102325761010080835404028352916020019161025d565b820191906000526020600020905b81548152906001019060200180831161024057829003601f168201915b50505050509080600101805461027290610d1a565b80601f016020809104026020016040519081016040528092919081815260200182805461029e90610d1a565b80156102eb5780601f106102c0576101008083540402835291602001916102eb565b820191906000526020600020905b8154815290600101906020018083116102ce57829003601f168201915b50505050509080600201805461030090610d1a565b80601f016020809104026020016040519081016040528092919081815260200182805461032c90610d1a565b80156103795780601f1061034e57610100808354040283529160200191610379565b820191906000526020600020905b81548152906001019060200180831161035c57829003601f168201915b50505050509080600301805461038e90610d1a565b80601f01602080910402602001604051908101604052809291908181526020018280546103ba90610d1a565b80156104075780601f106103dc57610100808354040283529160200191610407565b820191906000526020600020905b8154815290600101906020018083116103ea57829003601f168201915b5050505050905084565b60606000826040516104239190610cd4565b9081526020016040518091039020805480602002602001604051908101604052809291908181526020016000905b828210156106cb578382906000526020600020906004020160405180608001604052908160008201805461048490610d1a565b80601f01602080910402602001604051908101604052809291908181526020018280546104b090610d1a565b80156104fd5780601f106104d2576101008083540402835291602001916104fd565b820191906000526020600020905b8154815290600101906020018083116104e057829003601f168201915b5050505050815260200160018201805461051690610d1a565b80601f016020809104026020016040519081016040528092919081815260200182805461054290610d1a565b801561058f5780601f106105645761010080835404028352916020019161058f565b820191906000526020600020905b81548152906001019060200180831161057257829003601f168201915b505050505081526020016002820180546105a890610d1a565b80601f01602080910402602001604051908101604052809291908181526020018280546105d490610d1a565b80156106215780601f106105f657610100808354040283529160200191610621565b820191906000526020600020905b81548152906001019060200180831161060457829003601f168201915b5050505050815260200160038201805461063a90610d1a565b80601f016020809104026020016040519081016040528092919081815260200182805461066690610d1a565b80156106b35780601f10610688576101008083540402835291602001916106b3565b820191906000526020600020905b81548152906001019060200180831161069657829003601f168201915b50505050508152505081526020019060010190610451565b505050509050919050565b6000604051905090565b600080fd5b600080fd5b600080fd5b600080fd5b6000601f19601f8301169050919050565b7f4e487b7100000000000000000000000000000000000000000000000000000000600052604160045260246000fd5b61073d826106f4565b810181811067ffffffffffffffff8211171561075c5761075b610705565b5b80604052505050565b600061076f6106d6565b905061077b8282610734565b919050565b600067ffffffffffffffff82111561079b5761079a610705565b5b6107a4826106f4565b9050602081019050919050565b82818337600083830152505050565b60006107d36107ce84610780565b610765565b9050828152602081018484840111156107ef576107ee6106ef565b5b6107fa8482856107b1565b509392505050565b600082601f830112610817576108166106ea565b5b81356108278482602086016107c0565b91505092915050565b600080600080600060a0868803121561084c5761084b6106e0565b5b600086013567ffffffffffffffff81111561086a576108696106e5565b5b61087688828901610802565b955050602086013567ffffffffffffffff811115610897576108966106e5565b5b6108a388828901610802565b945050604086013567ffffffffffffffff8111156108c4576108c36106e5565b5b6108d088828901610802565b935050606086013567ffffffffffffffff8111156108f1576108f06106e5565b5b6108fd88828901610802565b925050608086013567ffffffffffffffff81111561091e5761091d6106e5565b5b61092a88828901610802565b9150509295509295909350565b6000819050919050565b61094a81610937565b811461095557600080fd5b50565b60008135905061096781610941565b92915050565b60008060408385031215610984576109836106e0565b5b600083013567ffffffffffffffff8111156109a2576109a16106e5565b5b6109ae85828601610802565b92505060206109bf85828601610958565b9150509250929050565b600081519050919050565b600082825260208201905092915050565b60005b83811015610a035780820151818401526020810190506109e8565b60008484015250505050565b6000610a1a826109c9565b610a2481856109d4565b9350610a348185602086016109e5565b610a3d816106f4565b840191505092915050565b60006080820190508181036000830152610a628187610a0f565b90508181036020830152610a768186610a0f565b90508181036040830152610a8a8185610a0f565b90508181036060830152610a9e8184610a0f565b905095945050505050565b600060208284031215610abf57610abe6106e0565b5b600082013567ffffffffffffffff811115610add57610adc6106e5565b5b610ae984828501610802565b91505092915050565b600081519050919050565b600082825260208201905092915050565b6000819050602082019050919050565b600082825260208201905092915050565b6000610b3a826109c9565b610b448185610b1e565b9350610b548185602086016109e5565b610b5d816106f4565b840191505092915050565b60006080830160008301518482036000860152610b858282610b2f565b91505060208301518482036020860152610b9f8282610b2f565b91505060408301518482036040860152610bb98282610b2f565b91505060608301518482036060860152610bd38282610b2f565b9150508091505092915050565b6000610bec8383610b68565b905092915050565b6000602082019050919050565b6000610c0c82610af2565b610c168185610afd565b935083602082028501610c2885610b0e565b8060005b85811015610c645784840389528151610c458582610be0565b9450610c5083610bf4565b925060208a01995050600181019050610c2c565b50829750879550505050505092915050565b60006020820190508181036000830152610c908184610c01565b905092915050565b600081905092915050565b6000610cae826109c9565b610cb88185610c98565b9350610cc88185602086016109e5565b80840191505092915050565b6000610ce08284610ca3565b915081905092915050565b7f4e487b7100000000000000000000000000000000000000000000000000000000600052602260045260246000fd5b60006002820490506001821680610d3257607f821691505b602082108103610d4557610d44610ceb565b5b50919050565b60008190508160005260206000209050919050565b60006020601f8301049050919050565b600082821b905092915050565b600060088302610dad7fffffffffffffffffffffffffffffffffffffffffffffffffffffffffffffffff82610d70565b610db78683610d70565b95508019841693508086168417925050509392505050565b6000819050919050565b6000610df4610def610dea84610937565b610dcf565b610937565b9050919050565b6000819050919050565b610e0e83610dd9565b610e22610e1a82610dfb565b848454610d7d565b825550505050565b600090565b610e37610e2a565b610e42818484610e05565b505050565b5b81811015610e6657610e5b600082610e2f565b600181019050610e48565b5050565b601f821115610eab57610e7c81610d4b565b610e8584610d60565b81016020851015610e94578190505b610ea8610ea085610d60565b830182610e47565b50505b505050565b600082821c905092915050565b6000610ece60001984600802610eb0565b1980831691505092915050565b6000610ee78383610ebd565b9150826002028217905092915050565b610f00826109c9565b67ffffffffffffffff811115610f1957610f18610705565b5b610f238254610d1a565b610f2e828285610e6a565b600060209050601f831160018114610f615760008415610f4f578287015190505b610f598582610edb565b865550610fc1565b601f198416610f6f86610d4b565b60005b82811015610f9757848901518255600182019150602085019450602081019050610f72565b86831015610fb45784890151610fb0601f891682610ebd565b8355505b6001600288020188555050505b50505050505056fea264697066735822122019bf33f6791d927ed3bd391a9841885a7aed3dcee22599514ac6cab53b63fddc64736f6c63430008130033",
  "linkReferences": {},
  "deployedLinkReferences": {}
}